{
  "_format": "hh-sol-artifact-1",
  "contractName": "ERC20CallOption",
  "sourceName": "contracts/ERC20CallOption.sol",
  "abi": [
    {
      "inputs": [],
      "stateMutability": "nonpayable",
      "type": "constructor"
    },
    {
      "anonymous": false,
      "inputs": [
        {
          "indexed": true,
          "internalType": "address",
          "name": "owner",
          "type": "address"
        },
        {
          "indexed": true,
          "internalType": "address",
          "name": "spender",
          "type": "address"
        },
        {
          "indexed": false,
          "internalType": "uint256",
          "name": "value",
          "type": "uint256"
        }
      ],
      "name": "Approval",
      "type": "event"
    },
    {
      "anonymous": false,
      "inputs": [
        {
          "indexed": false,
          "internalType": "address",
          "name": "to",
          "type": "address"
        },
        {
          "indexed": false,
          "internalType": "uint256",
          "name": "amount",
          "type": "uint256"
        }
      ],
      "name": "Minted",
      "type": "event"
    },
    {
      "anonymous": false,
      "inputs": [
        {
          "indexed": true,
          "internalType": "address",
          "name": "from",
          "type": "address"
        },
        {
          "indexed": true,
          "internalType": "address",
          "name": "to",
          "type": "address"
        },
        {
          "indexed": false,
          "internalType": "uint256",
          "name": "value",
          "type": "uint256"
        }
      ],
      "name": "Transfer",
      "type": "event"
    },
    {
      "inputs": [
        {
          "internalType": "address",
          "name": "owner",
          "type": "address"
        },
        {
          "internalType": "address",
          "name": "spender",
          "type": "address"
        }
      ],
      "name": "allowance",
      "outputs": [
        {
          "internalType": "uint256",
          "name": "",
          "type": "uint256"
        }
      ],
      "stateMutability": "view",
      "type": "function"
    },
    {
      "inputs": [
        {
          "internalType": "address",
          "name": "spender",
          "type": "address"
        },
        {
          "internalType": "uint256",
          "name": "amount",
          "type": "uint256"
        }
      ],
      "name": "approve",
      "outputs": [
        {
          "internalType": "bool",
          "name": "",
          "type": "bool"
        }
      ],
      "stateMutability": "nonpayable",
      "type": "function"
    },
    {
      "inputs": [
        {
          "internalType": "address",
          "name": "account",
          "type": "address"
        }
      ],
      "name": "balanceOf",
      "outputs": [
        {
          "internalType": "uint256",
          "name": "",
          "type": "uint256"
        }
      ],
      "stateMutability": "view",
      "type": "function"
    },
    {
      "inputs": [],
      "name": "decimals",
      "outputs": [
        {
          "internalType": "uint8",
          "name": "",
          "type": "uint8"
        }
      ],
      "stateMutability": "pure",
      "type": "function"
    },
    {
      "inputs": [
        {
          "internalType": "address",
          "name": "spender",
          "type": "address"
        },
        {
          "internalType": "uint256",
          "name": "subtractedValue",
          "type": "uint256"
        }
      ],
      "name": "decreaseAllowance",
      "outputs": [
        {
          "internalType": "bool",
          "name": "",
          "type": "bool"
        }
      ],
      "stateMutability": "nonpayable",
      "type": "function"
    },
    {
      "inputs": [],
      "name": "faucet",
      "outputs": [],
      "stateMutability": "nonpayable",
      "type": "function"
    },
    {
      "inputs": [
        {
          "internalType": "address",
          "name": "spender",
          "type": "address"
        },
        {
          "internalType": "uint256",
          "name": "addedValue",
          "type": "uint256"
        }
      ],
      "name": "increaseAllowance",
      "outputs": [
        {
          "internalType": "bool",
          "name": "",
          "type": "bool"
        }
      ],
      "stateMutability": "nonpayable",
      "type": "function"
    },
    {
      "inputs": [],
      "name": "name",
      "outputs": [
        {
          "internalType": "string",
          "name": "",
          "type": "string"
        }
      ],
      "stateMutability": "view",
      "type": "function"
    },
    {
      "inputs": [],
      "name": "symbol",
      "outputs": [
        {
          "internalType": "string",
          "name": "",
          "type": "string"
        }
      ],
      "stateMutability": "view",
      "type": "function"
    },
    {
      "inputs": [],
      "name": "totalSupply",
      "outputs": [
        {
          "internalType": "uint256",
          "name": "",
          "type": "uint256"
        }
      ],
      "stateMutability": "view",
      "type": "function"
    },
    {
      "inputs": [
        {
          "internalType": "address",
          "name": "recipient",
          "type": "address"
        },
        {
          "internalType": "uint256",
          "name": "amount",
          "type": "uint256"
        }
      ],
      "name": "transfer",
      "outputs": [
        {
          "internalType": "bool",
          "name": "",
          "type": "bool"
        }
      ],
      "stateMutability": "nonpayable",
      "type": "function"
    },
    {
      "inputs": [
        {
          "internalType": "address",
          "name": "sender",
          "type": "address"
        },
        {
          "internalType": "address",
          "name": "recipient",
          "type": "address"
        },
        {
          "internalType": "uint256",
          "name": "amount",
          "type": "uint256"
        }
      ],
      "name": "transferFrom",
      "outputs": [
        {
          "internalType": "bool",
          "name": "",
          "type": "bool"
        }
      ],
      "stateMutability": "nonpayable",
      "type": "function"
    }
  ],
  "bytecode": "0x60806040523480156200001157600080fd5b506040518060400160405280601681526020017f4554482d555344542043333530302053455032303231000000000000000000008152506040518060400160405280600381526020017f4f50580000000000000000000000000000000000000000000000000000000000815250816003908051906020019062000096929190620000b8565b508060049080519060200190620000af929190620000b8565b505050620001cd565b828054620000c69062000168565b90600052602060002090601f016020900481019282620000ea576000855562000136565b82601f106200010557805160ff191683800117855562000136565b8280016001018555821562000136579182015b828111156200013557825182559160200191906001019062000118565b5b50905062000145919062000149565b5090565b5b80821115620001645760008160009055506001016200014a565b5090565b600060028204905060018216806200018157607f821691505b602082108114156200019857620001976200019e565b5b50919050565b7f4e487b7100000000000000000000000000000000000000000000000000000000600052602260045260246000fd5b61161280620001dd6000396000f3fe608060405234801561001057600080fd5b50600436106100b45760003560e01c806370a082311161007157806370a08231146101a357806395d89b41146101d3578063a457c2d7146101f1578063a9059cbb14610221578063dd62ed3e14610251578063de5f72fd14610281576100b4565b806306fdde03146100b9578063095ea7b3146100d757806318160ddd1461010757806323b872dd14610125578063313ce567146101555780633950935114610173575b600080fd5b6100c161028b565b6040516100ce9190611057565b60405180910390f35b6100f160048036038101906100ec9190610e3b565b61031d565b6040516100fe919061103c565b60405180910390f35b61010f61033b565b60405161011c9190611179565b60405180910390f35b61013f600480360381019061013a9190610dec565b610345565b60405161014c919061103c565b60405180910390f35b61015d61043d565b60405161016a9190611194565b60405180910390f35b61018d60048036038101906101889190610e3b565b610442565b60405161019a919061103c565b60405180910390f35b6101bd60048036038101906101b89190610d87565b6104ee565b6040516101ca9190611179565b60405180910390f35b6101db610536565b6040516101e89190611057565b60405180910390f35b61020b60048036038101906102069190610e3b565b6105c8565b604051610218919061103c565b60405180910390f35b61023b60048036038101906102369190610e3b565b6106b3565b604051610248919061103c565b60405180910390f35b61026b60048036038101906102669190610db0565b6106d1565b6040516102789190611179565b60405180910390f35b610289610758565b005b60606003805461029a906112bb565b80601f01602080910402602001604051908101604052809291908181526020018280546102c6906112bb565b80156103135780601f106102e857610100808354040283529160200191610313565b820191906000526020600020905b8154815290600101906020018083116102f657829003601f168201915b5050505050905090565b600061033161032a61079f565b84846107a7565b6001905092915050565b6000600254905090565b6000610352848484610972565b6000600160008673ffffffffffffffffffffffffffffffffffffffff1673ffffffffffffffffffffffffffffffffffffffff168152602001908152602001600020600061039d61079f565b73ffffffffffffffffffffffffffffffffffffffff1673ffffffffffffffffffffffffffffffffffffffff1681526020019081526020016000205490508281101561041d576040517f08c379a0000000000000000000000000000000000000000000000000000000008152600401610414906110d9565b60405180910390fd5b6104318561042961079f565b8584036107a7565b60019150509392505050565b600090565b60006104e461044f61079f565b84846001600061045d61079f565b73ffffffffffffffffffffffffffffffffffffffff1673ffffffffffffffffffffffffffffffffffffffff16815260200190815260200160002060008873ffffffffffffffffffffffffffffffffffffffff1673ffffffffffffffffffffffffffffffffffffffff168152602001908152602001600020546104df91906111cb565b6107a7565b6001905092915050565b60008060008373ffffffffffffffffffffffffffffffffffffffff1673ffffffffffffffffffffffffffffffffffffffff168152602001908152602001600020549050919050565b606060048054610545906112bb565b80601f0160208091040260200160405190810160405280929190818152602001828054610571906112bb565b80156105be5780601f10610593576101008083540402835291602001916105be565b820191906000526020600020905b8154815290600101906020018083116105a157829003601f168201915b5050505050905090565b600080600160006105d761079f565b73ffffffffffffffffffffffffffffffffffffffff1673ffffffffffffffffffffffffffffffffffffffff16815260200190815260200160002060008573ffffffffffffffffffffffffffffffffffffffff1673ffffffffffffffffffffffffffffffffffffffff16815260200190815260200160002054905082811015610694576040517f08c379a000000000000000000000000000000000000000000000000000000000815260040161068b90611139565b60405180910390fd5b6106a861069f61079f565b858584036107a7565b600191505092915050565b60006106c76106c061079f565b8484610972565b6001905092915050565b6000600160008473ffffffffffffffffffffffffffffffffffffffff1673ffffffffffffffffffffffffffffffffffffffff16815260200190815260200160002060008373ffffffffffffffffffffffffffffffffffffffff1673ffffffffffffffffffffffffffffffffffffffff16815260200190815260200160002054905092915050565b61076333600a610bf3565b7f30385c845b448a36257a6a1716e6ad2e1bc2cbe333cde1e69fe849ad6511adfe33600a604051610795929190611013565b60405180910390a1565b600033905090565b600073ffffffffffffffffffffffffffffffffffffffff168373ffffffffffffffffffffffffffffffffffffffff161415610817576040517f08c379a000000000000000000000000000000000000000000000000000000000815260040161080e90611119565b60405180910390fd5b600073ffffffffffffffffffffffffffffffffffffffff168273ffffffffffffffffffffffffffffffffffffffff161415610887576040517f08c379a000000000000000000000000000000000000000000000000000000000815260040161087e90611099565b60405180910390fd5b80600160008573ffffffffffffffffffffffffffffffffffffffff1673ffffffffffffffffffffffffffffffffffffffff16815260200190815260200160002060008473ffffffffffffffffffffffffffffffffffffffff1673ffffffffffffffffffffffffffffffffffffffff168152602001908152602001600020819055508173ffffffffffffffffffffffffffffffffffffffff168373ffffffffffffffffffffffffffffffffffffffff167f8c5be1e5ebec7d5bd14f71427d1e84f3dd0314c0f7b2291e5b200ac8c7c3b925836040516109659190611179565b60405180910390a3505050565b600073ffffffffffffffffffffffffffffffffffffffff168373ffffffffffffffffffffffffffffffffffffffff1614156109e2576040517f08c379a00000000000000000000000000000000000000000000000000000000081526004016109d9906110f9565b60405180910390fd5b600073ffffffffffffffffffffffffffffffffffffffff168273ffffffffffffffffffffffffffffffffffffffff161415610a52576040517f08c379a0000000000000000000000000000000000000000000000000000000008152600401610a4990611079565b60405180910390fd5b610a5d838383610d53565b60008060008573ffffffffffffffffffffffffffffffffffffffff1673ffffffffffffffffffffffffffffffffffffffff16815260200190815260200160002054905081811015610ae3576040517f08c379a0000000000000000000000000000000000000000000000000000000008152600401610ada906110b9565b60405180910390fd5b8181036000808673ffffffffffffffffffffffffffffffffffffffff1673ffffffffffffffffffffffffffffffffffffffff16815260200190815260200160002081905550816000808573ffffffffffffffffffffffffffffffffffffffff1673ffffffffffffffffffffffffffffffffffffffff1681526020019081526020016000206000828254610b7691906111cb565b925050819055508273ffffffffffffffffffffffffffffffffffffffff168473ffffffffffffffffffffffffffffffffffffffff167fddf252ad1be2c89b69c2b068fc378daa952ba7f163c4a11628f55a4df523b3ef84604051610bda9190611179565b60405180910390a3610bed848484610d58565b50505050565b600073ffffffffffffffffffffffffffffffffffffffff168273ffffffffffffffffffffffffffffffffffffffff161415610c63576040517f08c379a0000000000000000000000000000000000000000000000000000000008152600401610c5a90611159565b60405180910390fd5b610c6f60008383610d53565b8060026000828254610c8191906111cb565b92505081905550806000808473ffffffffffffffffffffffffffffffffffffffff1673ffffffffffffffffffffffffffffffffffffffff1681526020019081526020016000206000828254610cd691906111cb565b925050819055508173ffffffffffffffffffffffffffffffffffffffff16600073ffffffffffffffffffffffffffffffffffffffff167fddf252ad1be2c89b69c2b068fc378daa952ba7f163c4a11628f55a4df523b3ef83604051610d3b9190611179565b60405180910390a3610d4f60008383610d58565b5050565b505050565b505050565b600081359050610d6c816115ae565b92915050565b600081359050610d81816115c5565b92915050565b600060208284031215610d9957600080fd5b6000610da784828501610d5d565b91505092915050565b60008060408385031215610dc357600080fd5b6000610dd185828601610d5d565b9250506020610de285828601610d5d565b9150509250929050565b600080600060608486031215610e0157600080fd5b6000610e0f86828701610d5d565b9350506020610e2086828701610d5d565b9250506040610e3186828701610d72565b9150509250925092565b60008060408385031215610e4e57600080fd5b6000610e5c85828601610d5d565b9250506020610e6d85828601610d72565b9150509250929050565b610e8081611221565b82525050565b610e8f81611233565b82525050565b610e9e81611276565b82525050565b6000610eaf826111af565b610eb981856111ba565b9350610ec9818560208601611288565b610ed28161134b565b840191505092915050565b6000610eea6023836111ba565b9150610ef58261135c565b604082019050919050565b6000610f0d6022836111ba565b9150610f18826113ab565b604082019050919050565b6000610f306026836111ba565b9150610f3b826113fa565b604082019050919050565b6000610f536028836111ba565b9150610f5e82611449565b604082019050919050565b6000610f766025836111ba565b9150610f8182611498565b604082019050919050565b6000610f996024836111ba565b9150610fa4826114e7565b604082019050919050565b6000610fbc6025836111ba565b9150610fc782611536565b604082019050919050565b6000610fdf601f836111ba565b9150610fea82611585565b602082019050919050565b610ffe8161125f565b82525050565b61100d81611269565b82525050565b60006040820190506110286000830185610e77565b6110356020830184610e95565b9392505050565b60006020820190506110516000830184610e86565b92915050565b600060208201905081810360008301526110718184610ea4565b905092915050565b6000602082019050818103600083015261109281610edd565b9050919050565b600060208201905081810360008301526110b281610f00565b9050919050565b600060208201905081810360008301526110d281610f23565b9050919050565b600060208201905081810360008301526110f281610f46565b9050919050565b6000602082019050818103600083015261111281610f69565b9050919050565b6000602082019050818103600083015261113281610f8c565b9050919050565b6000602082019050818103600083015261115281610faf565b9050919050565b6000602082019050818103600083015261117281610fd2565b9050919050565b600060208201905061118e6000830184610ff5565b92915050565b60006020820190506111a96000830184611004565b92915050565b600081519050919050565b600082825260208201905092915050565b60006111d68261125f565b91506111e18361125f565b9250827fffffffffffffffffffffffffffffffffffffffffffffffffffffffffffffffff03821115611216576112156112ed565b5b828201905092915050565b600061122c8261123f565b9050919050565b60008115159050919050565b600073ffffffffffffffffffffffffffffffffffffffff82169050919050565b6000819050919050565b600060ff82169050919050565b60006112818261125f565b9050919050565b60005b838110156112a657808201518184015260208101905061128b565b838111156112b5576000848401525b50505050565b600060028204905060018216806112d357607f821691505b602082108114156112e7576112e661131c565b5b50919050565b7f4e487b7100000000000000000000000000000000000000000000000000000000600052601160045260246000fd5b7f4e487b7100000000000000000000000000000000000000000000000000000000600052602260045260246000fd5b6000601f19601f8301169050919050565b7f45524332303a207472616e7366657220746f20746865207a65726f206164647260008201527f6573730000000000000000000000000000000000000000000000000000000000602082015250565b7f45524332303a20617070726f766520746f20746865207a65726f20616464726560008201527f7373000000000000000000000000000000000000000000000000000000000000602082015250565b7f45524332303a207472616e7366657220616d6f756e742065786365656473206260008201527f616c616e63650000000000000000000000000000000000000000000000000000602082015250565b7f45524332303a207472616e7366657220616d6f756e742065786365656473206160008201527f6c6c6f77616e6365000000000000000000000000000000000000000000000000602082015250565b7f45524332303a207472616e736665722066726f6d20746865207a65726f20616460008201527f6472657373000000000000000000000000000000000000000000000000000000602082015250565b7f45524332303a20617070726f76652066726f6d20746865207a65726f2061646460008201527f7265737300000000000000000000000000000000000000000000000000000000602082015250565b7f45524332303a2064656372656173656420616c6c6f77616e63652062656c6f7760008201527f207a65726f000000000000000000000000000000000000000000000000000000602082015250565b7f45524332303a206d696e7420746f20746865207a65726f206164647265737300600082015250565b6115b781611221565b81146115c257600080fd5b50565b6115ce8161125f565b81146115d957600080fd5b5056fea2646970667358221220931c46dadfe4fd5e35ea3af9be6c102d81685a0877b79709d0c68fe217e77fe264736f6c63430008040033",
  "linkReferences": {},
  "deployedLinkReferences": {}
}