{
  "_format": "hh-sol-artifact-1",
  "contractName": "OTCOptions",
  "sourceName": "contracts/OTCOptions.sol",
  "abi": [
    {
      "anonymous": false,
      "inputs": [
        {
          "indexed": true,
          "internalType": "address",
          "name": "by",
          "type": "address"
        },
        {
          "indexed": false,
          "internalType": "address",
          "name": "optionAddress",
          "type": "address"
        },
        {
          "indexed": false,
          "internalType": "uint256",
          "name": "id",
          "type": "uint256"
        },
        {
          "indexed": false,
          "internalType": "uint256",
          "name": "amount",
          "type": "uint256"
        }
      ],
      "name": "OTCOptionBought",
      "type": "event"
    },
    {
      "anonymous": false,
      "inputs": [
        {
          "indexed": false,
          "internalType": "address",
          "name": "optionAddress",
          "type": "address"
        },
        {
          "indexed": false,
          "internalType": "uint256",
          "name": "id",
          "type": "uint256"
        },
        {
          "indexed": false,
          "internalType": "uint256",
          "name": "price",
          "type": "uint256"
        },
        {
          "indexed": false,
          "internalType": "uint256",
          "name": "amount",
          "type": "uint256"
        }
      ],
      "name": "OTCOptionCreated",
      "type": "event"
    },
    {
      "inputs": [
        {
          "internalType": "uint256",
          "name": "_pointer",
          "type": "uint256"
        }
      ],
      "name": "buy",
      "outputs": [],
      "stateMutability": "payable",
      "type": "function"
    },
    {
      "inputs": [
        {
          "internalType": "address",
          "name": "_address",
          "type": "address"
        },
        {
          "internalType": "uint256",
          "name": "_price",
          "type": "uint256"
        },
        {
          "internalType": "uint256",
          "name": "_amount",
          "type": "uint256"
        }
      ],
      "name": "create",
      "outputs": [],
      "stateMutability": "nonpayable",
      "type": "function"
    },
    {
      "inputs": [],
      "name": "numOfOptions",
      "outputs": [
        {
          "internalType": "uint256",
          "name": "",
          "type": "uint256"
        }
      ],
      "stateMutability": "view",
      "type": "function"
    },
    {
      "inputs": [
        {
          "internalType": "uint256",
          "name": "",
          "type": "uint256"
        }
      ],
      "name": "options",
      "outputs": [
        {
          "internalType": "bool",
          "name": "active",
          "type": "bool"
        },
        {
          "internalType": "address",
          "name": "optionAddress",
          "type": "address"
        },
        {
          "internalType": "address",
          "name": "seller",
          "type": "address"
        },
        {
          "internalType": "uint256",
          "name": "price",
          "type": "uint256"
        },
        {
          "internalType": "uint256",
          "name": "amount",
          "type": "uint256"
        }
      ],
      "stateMutability": "view",
      "type": "function"
    }
  ],
  "bytecode": "0x608060405234801561001057600080fd5b5061152f806100206000396000f3fe60806040526004361061003f5760003560e01c8063409e2205146100445780635165da3014610085578063d80f7af4146100ae578063d96a094a146100d9575b600080fd5b34801561005057600080fd5b5061006b60048036038101906100669190610f55565b6100f5565b60405161007c95949392919061117a565b60405180910390f35b34801561009157600080fd5b506100ac60048036038101906100a79190610edd565b610178565b005b3480156100ba57600080fd5b506100c36102c8565b6040516100d0919061126d565b60405180910390f35b6100f360048036038101906100ee9190610f55565b6102ce565b005b60016020528060005260406000206000915090508060000160009054906101000a900460ff16908060000160019054906101000a900473ffffffffffffffffffffffffffffffffffffffff16908060010160009054906101000a900473ffffffffffffffffffffffffffffffffffffffff16908060020154908060030154905085565b826000806101000a81548173ffffffffffffffffffffffffffffffffffffffff021916908373ffffffffffffffffffffffffffffffffffffffff16021790555060006040518060a001604052808573ffffffffffffffffffffffffffffffffffffffff1681526020013373ffffffffffffffffffffffffffffffffffffffff1681526020018481526020018381526020016002548152509050600260008154809291906102249061136f565b919050555060006102348261054b565b905080610276576040517f08c379a000000000000000000000000000000000000000000000000000000000815260040161026d906111ed565b60405180910390fd5b7f78b4f7aa0629a77a04c0c7e33a60263844787d2d734e5253655a579d521322cc8560016002546102a791906112f3565b86866040516102b99493929190611135565b60405180910390a15050505050565b60025481565b6000600160008381526020019081526020016000206040518060a00160405290816000820160009054906101000a900460ff161515151581526020016000820160019054906101000a900473ffffffffffffffffffffffffffffffffffffffff1673ffffffffffffffffffffffffffffffffffffffff1673ffffffffffffffffffffffffffffffffffffffff1681526020016001820160009054906101000a900473ffffffffffffffffffffffffffffffffffffffff1673ffffffffffffffffffffffffffffffffffffffff1673ffffffffffffffffffffffffffffffffffffffff168152602001600282015481526020016003820154815250509050806000015161040f576040517f08c379a0000000000000000000000000000000000000000000000000000000008152600401610406906111cd565b60405180910390fd5b34816080015182606001516104249190611299565b14610464576040517f08c379a000000000000000000000000000000000000000000000000000000000815260040161045b9061122d565b60405180910390fd5b60006040518060600160405280848152602001836080015181526020013373ffffffffffffffffffffffffffffffffffffffff16815250905060006104a98383610a4f565b9050806104eb576040517f08c379a00000000000000000000000000000000000000000000000000000000081526004016104e29061120d565b60405180910390fd5b3373ffffffffffffffffffffffffffffffffffffffff167f6566ff52e6f194e43650220e879b5bef4a65c0f7443223e98dfb768c3cd16f31846020015186866080015160405161053d939291906110fe565b60405180910390a250505050565b600081600060058110610587577f4e487b7100000000000000000000000000000000000000000000000000000000600052603260045260246000fd5b60200201516000806101000a81548173ffffffffffffffffffffffffffffffffffffffff021916908373ffffffffffffffffffffffffffffffffffffffff16021790555081600460058110610605577f4e487b7100000000000000000000000000000000000000000000000000000000600052603260045260246000fd5b602002015160008054906101000a900473ffffffffffffffffffffffffffffffffffffffff1673ffffffffffffffffffffffffffffffffffffffff166370a08231336040518263ffffffff1660e01b81526004016106639190611083565b60206040518083038186803b15801561067b57600080fd5b505afa15801561068f573d6000803e3d6000fd5b505050506040513d601f19601f820116820180604052508101906106b39190610f7e565b10156106f4576040517f08c379a00000000000000000000000000000000000000000000000000000000081526004016106eb9061124d565b60405180910390fd5b60008054906101000a900473ffffffffffffffffffffffffffffffffffffffff1673ffffffffffffffffffffffffffffffffffffffff166323b872dd33308560036005811061076c577f4e487b7100000000000000000000000000000000000000000000000000000000600052603260045260246000fd5b60200201516040518463ffffffff1660e01b815260040161078f9392919061109e565b602060405180830381600087803b1580156107a957600080fd5b505af11580156107bd573d6000803e3d6000fd5b505050506040513d601f19601f820116820180604052508101906107e19190610f2c565b506040518060a0016040528060011515815260200183600060058110610830577f4e487b7100000000000000000000000000000000000000000000000000000000600052603260045260246000fd5b602002015173ffffffffffffffffffffffffffffffffffffffff1681526020018360016005811061088a577f4e487b7100000000000000000000000000000000000000000000000000000000600052603260045260246000fd5b602002015173ffffffffffffffffffffffffffffffffffffffff168152602001836002600581106108e4577f4e487b7100000000000000000000000000000000000000000000000000000000600052603260045260246000fd5b6020020151815260200183600360058110610928577f4e487b7100000000000000000000000000000000000000000000000000000000600052603260045260246000fd5b6020020151815250600160008460046005811061096e577f4e487b7100000000000000000000000000000000000000000000000000000000600052603260045260246000fd5b6020020151815260200190815260200160002060008201518160000160006101000a81548160ff02191690831515021790555060208201518160000160016101000a81548173ffffffffffffffffffffffffffffffffffffffff021916908373ffffffffffffffffffffffffffffffffffffffff16021790555060408201518160010160006101000a81548173ffffffffffffffffffffffffffffffffffffffff021916908373ffffffffffffffffffffffffffffffffffffffff160217905550606082015181600201556080820151816003015590505060019050919050565b600082602001516000806101000a81548173ffffffffffffffffffffffffffffffffffffffff021916908373ffffffffffffffffffffffffffffffffffffffff160217905550826040015173ffffffffffffffffffffffffffffffffffffffff166108fc83600160038110610aed577f4e487b7100000000000000000000000000000000000000000000000000000000600052603260045260246000fd5b60200201518560600151610b019190611299565b9081150290604051600060405180830381858888f19350505050158015610b2c573d6000803e3d6000fd5b5081600160038110610b67577f4e487b7100000000000000000000000000000000000000000000000000000000600052603260045260246000fd5b60200201516001600084600060038110610baa577f4e487b7100000000000000000000000000000000000000000000000000000000600052603260045260246000fd5b602002015181526020019081526020016000206003016000828254610bcf91906112f3565b9250508190555060008054906101000a900473ffffffffffffffffffffffffffffffffffffffff1673ffffffffffffffffffffffffffffffffffffffff1663a9059cbb83600260038110610c4c577f4e487b7100000000000000000000000000000000000000000000000000000000600052603260045260246000fd5b602002015184600160038110610c8b577f4e487b7100000000000000000000000000000000000000000000000000000000600052603260045260246000fd5b60200201516040518363ffffffff1660e01b8152600401610cad9291906110d5565b602060405180830381600087803b158015610cc757600080fd5b505af1158015610cdb573d6000803e3d6000fd5b505050506040513d601f19601f82011682018060405250810190610cff9190610f2c565b5060008060009054906101000a900473ffffffffffffffffffffffffffffffffffffffff1673ffffffffffffffffffffffffffffffffffffffff166370a08231306040518263ffffffff1660e01b8152600401610d5c9190611083565b60206040518083038186803b158015610d7457600080fd5b505afa158015610d88573d6000803e3d6000fd5b505050506040513d601f19601f82011682018060405250810190610dac9190610f7e565b90506000811415610e7e576001600084600060038110610df5577f4e487b7100000000000000000000000000000000000000000000000000000000600052603260045260246000fd5b60200201518152602001908152602001600020600080820160006101000a81549060ff02191690556000820160016101000a81549073ffffffffffffffffffffffffffffffffffffffff02191690556001820160006101000a81549073ffffffffffffffffffffffffffffffffffffffff02191690556002820160009055600382016000905550505b600191505092915050565b600081359050610e98816114b4565b92915050565b600081519050610ead816114cb565b92915050565b600081359050610ec2816114e2565b92915050565b600081519050610ed7816114e2565b92915050565b600080600060608486031215610ef257600080fd5b6000610f0086828701610e89565b9350506020610f1186828701610eb3565b9250506040610f2286828701610eb3565b9150509250925092565b600060208284031215610f3e57600080fd5b6000610f4c84828501610e9e565b91505092915050565b600060208284031215610f6757600080fd5b6000610f7584828501610eb3565b91505092915050565b600060208284031215610f9057600080fd5b6000610f9e84828501610ec8565b91505092915050565b610fb081611327565b82525050565b610fbf81611339565b82525050565b6000610fd2600e83611288565b9150610fdd826113e7565b602082019050919050565b6000610ff5601483611288565b915061100082611410565b602082019050919050565b6000611018600d83611288565b915061102382611439565b602082019050919050565b600061103b601283611288565b915061104682611462565b602082019050919050565b600061105e601d83611288565b91506110698261148b565b602082019050919050565b61107d81611365565b82525050565b60006020820190506110986000830184610fa7565b92915050565b60006060820190506110b36000830186610fa7565b6110c06020830185610fa7565b6110cd6040830184611074565b949350505050565b60006040820190506110ea6000830185610fa7565b6110f76020830184611074565b9392505050565b60006060820190506111136000830186610fa7565b6111206020830185611074565b61112d6040830184611074565b949350505050565b600060808201905061114a6000830187610fa7565b6111576020830186611074565b6111646040830185611074565b6111716060830184611074565b95945050505050565b600060a08201905061118f6000830188610fb6565b61119c6020830187610fa7565b6111a96040830186610fa7565b6111b66060830185611074565b6111c36080830184611074565b9695505050505050565b600060208201905081810360008301526111e681610fc5565b9050919050565b6000602082019050818103600083015261120681610fe8565b9050919050565b600060208201905081810360008301526112268161100b565b9050919050565b600060208201905081810360008301526112468161102e565b9050919050565b6000602082019050818103600083015261126681611051565b9050919050565b60006020820190506112826000830184611074565b92915050565b600082825260208201905092915050565b60006112a482611365565b91506112af83611365565b9250817fffffffffffffffffffffffffffffffffffffffffffffffffffffffffffffffff04831182151516156112e8576112e76113b8565b5b828202905092915050565b60006112fe82611365565b915061130983611365565b92508282101561131c5761131b6113b8565b5b828203905092915050565b600061133282611345565b9050919050565b60008115159050919050565b600073ffffffffffffffffffffffffffffffffffffffff82169050919050565b6000819050919050565b600061137a82611365565b91507fffffffffffffffffffffffffffffffffffffffffffffffffffffffffffffffff8214156113ad576113ac6113b8565b5b600182019050919050565b7f4e487b7100000000000000000000000000000000000000000000000000000000600052601160045260246000fd5b7f4f5443206e6f7420616374697665000000000000000000000000000000000000600082015250565b7f636f756c64206e6f7420637265617465204f5443000000000000000000000000600082015250565b7f5075726368617365206661696c00000000000000000000000000000000000000600082015250565b7f5061796d656e74206e6f7420656e6f7567680000000000000000000000000000600082015250565b7f45786365656473204552433230206f7074696f6e732062616c616e6365000000600082015250565b6114bd81611327565b81146114c857600080fd5b50565b6114d481611339565b81146114df57600080fd5b50565b6114eb81611365565b81146114f657600080fd5b5056fea26469706673582212209de59b5f1b8be59fad2edf5fe9f0c653393bdd0073f9b65ba23f2bb8db79b27d64736f6c63430008040033",
  "linkReferences": {},
  "deployedLinkReferences": {}
}