{
  "_format": "hh-sol-artifact-1",
  "contractName": "OTCOptions",
  "sourceName": "contracts/OTCOptions.sol",
  "abi": [
    {
      "anonymous": false,
      "inputs": [
        {
          "indexed": true,
          "internalType": "address",
          "name": "by",
          "type": "address"
        },
        {
          "indexed": false,
          "internalType": "address",
          "name": "optionAddress",
          "type": "address"
        },
        {
          "indexed": false,
          "internalType": "uint256",
          "name": "id",
          "type": "uint256"
        },
        {
          "indexed": false,
          "internalType": "uint256",
          "name": "amount",
          "type": "uint256"
        }
      ],
      "name": "OTCOptionBought",
      "type": "event"
    },
    {
      "anonymous": false,
      "inputs": [
        {
          "indexed": false,
          "internalType": "address",
          "name": "optionAddress",
          "type": "address"
        },
        {
          "indexed": false,
          "internalType": "uint256",
          "name": "id",
          "type": "uint256"
        },
        {
          "indexed": false,
          "internalType": "uint256",
          "name": "price",
          "type": "uint256"
        },
        {
          "indexed": false,
          "internalType": "uint256",
          "name": "amount",
          "type": "uint256"
        }
      ],
      "name": "OTCOptionCreated",
      "type": "event"
    },
    {
      "inputs": [
        {
          "internalType": "uint256",
          "name": "_pointer",
          "type": "uint256"
        }
      ],
      "name": "buy",
      "outputs": [],
      "stateMutability": "payable",
      "type": "function"
    },
    {
      "inputs": [
        {
          "internalType": "address",
          "name": "_address",
          "type": "address"
        },
        {
          "internalType": "uint256",
          "name": "_price",
          "type": "uint256"
        },
        {
          "internalType": "uint256",
          "name": "_amount",
          "type": "uint256"
        }
      ],
      "name": "create",
      "outputs": [],
      "stateMutability": "nonpayable",
      "type": "function"
    },
    {
      "inputs": [],
      "name": "numOfOptions",
      "outputs": [
        {
          "internalType": "uint256",
          "name": "",
          "type": "uint256"
        }
      ],
      "stateMutability": "view",
      "type": "function"
    },
    {
      "inputs": [
        {
          "internalType": "uint256",
          "name": "",
          "type": "uint256"
        }
      ],
      "name": "options",
      "outputs": [
        {
          "internalType": "bool",
          "name": "active",
          "type": "bool"
        },
        {
          "internalType": "address",
          "name": "optionAddress",
          "type": "address"
        },
        {
          "internalType": "address",
          "name": "seller",
          "type": "address"
        },
        {
          "internalType": "uint256",
          "name": "price",
          "type": "uint256"
        },
        {
          "internalType": "uint256",
          "name": "amount",
          "type": "uint256"
        },
        {
          "internalType": "uint256",
          "name": "pointer",
          "type": "uint256"
        }
      ],
      "stateMutability": "view",
      "type": "function"
    }
  ],
  "bytecode": "0x608060405234801561001057600080fd5b50611655806100206000396000f3fe60806040526004361061003f5760003560e01c8063409e2205146100445780635165da3014610086578063d80f7af4146100af578063d96a094a146100da575b600080fd5b34801561005057600080fd5b5061006b60048036038101906100669190611001565b6100f6565b60405161007d96959493929190611249565b60405180910390f35b34801561009257600080fd5b506100ad60048036038101906100a89190610f89565b61017f565b005b3480156100bb57600080fd5b506100c46102cf565b6040516100d1919061136a565b60405180910390f35b6100f460048036038101906100ef9190611001565b6102d5565b005b60016020528060005260406000206000915090508060000160009054906101000a900460ff16908060000160019054906101000a900473ffffffffffffffffffffffffffffffffffffffff16908060010160009054906101000a900473ffffffffffffffffffffffffffffffffffffffff16908060020154908060030154908060040154905086565b826000806101000a81548173ffffffffffffffffffffffffffffffffffffffff021916908373ffffffffffffffffffffffffffffffffffffffff16021790555060006040518060a001604052808573ffffffffffffffffffffffffffffffffffffffff1681526020013373ffffffffffffffffffffffffffffffffffffffff16815260200184815260200183815260200160025481525090506002600081548092919061022b9061146c565b9190505550600061023b826105a1565b90508061027d576040517f08c379a0000000000000000000000000000000000000000000000000000000008152600401610274906112ca565b60405180910390fd5b7f78b4f7aa0629a77a04c0c7e33a60263844787d2d734e5253655a579d521322cc8560016002546102ae91906113f0565b86866040516102c09493929190611204565b60405180910390a15050505050565b60025481565b60025481111561031a576040517f08c379a0000000000000000000000000000000000000000000000000000000008152600401610311906112ea565b60405180910390fd5b6000600160008381526020019081526020016000206040518060c00160405290816000820160009054906101000a900460ff161515151581526020016000820160019054906101000a900473ffffffffffffffffffffffffffffffffffffffff1673ffffffffffffffffffffffffffffffffffffffff1673ffffffffffffffffffffffffffffffffffffffff1681526020016001820160009054906101000a900473ffffffffffffffffffffffffffffffffffffffff1673ffffffffffffffffffffffffffffffffffffffff1673ffffffffffffffffffffffffffffffffffffffff168152602001600282015481526020016003820154815260200160048201548152505090508060000151610465576040517f08c379a000000000000000000000000000000000000000000000000000000000815260040161045c906112aa565b60405180910390fd5b348160800151826060015161047a9190611396565b146104ba576040517f08c379a00000000000000000000000000000000000000000000000000000000081526004016104b19061132a565b60405180910390fd5b60006040518060600160405280848152602001836080015181526020013373ffffffffffffffffffffffffffffffffffffffff16815250905060006104ff8383610af3565b905080610541576040517f08c379a00000000000000000000000000000000000000000000000000000000081526004016105389061130a565b60405180910390fd5b3373ffffffffffffffffffffffffffffffffffffffff167f6566ff52e6f194e43650220e879b5bef4a65c0f7443223e98dfb768c3cd16f318460200151868660800151604051610593939291906111cd565b60405180910390a250505050565b6000816000600581106105dd577f4e487b7100000000000000000000000000000000000000000000000000000000600052603260045260246000fd5b60200201516000806101000a81548173ffffffffffffffffffffffffffffffffffffffff021916908373ffffffffffffffffffffffffffffffffffffffff1602179055508160046005811061065b577f4e487b7100000000000000000000000000000000000000000000000000000000600052603260045260246000fd5b602002015160008054906101000a900473ffffffffffffffffffffffffffffffffffffffff1673ffffffffffffffffffffffffffffffffffffffff166370a08231336040518263ffffffff1660e01b81526004016106b99190611152565b60206040518083038186803b1580156106d157600080fd5b505afa1580156106e5573d6000803e3d6000fd5b505050506040513d601f19601f82011682018060405250810190610709919061102a565b101561074a576040517f08c379a00000000000000000000000000000000000000000000000000000000081526004016107419061134a565b60405180910390fd5b60008054906101000a900473ffffffffffffffffffffffffffffffffffffffff1673ffffffffffffffffffffffffffffffffffffffff166323b872dd3330856003600581106107c2577f4e487b7100000000000000000000000000000000000000000000000000000000600052603260045260246000fd5b60200201516040518463ffffffff1660e01b81526004016107e59392919061116d565b602060405180830381600087803b1580156107ff57600080fd5b505af1158015610813573d6000803e3d6000fd5b505050506040513d601f19601f820116820180604052508101906108379190610fd8565b506040518060c0016040528060011515815260200183600060058110610886577f4e487b7100000000000000000000000000000000000000000000000000000000600052603260045260246000fd5b602002015173ffffffffffffffffffffffffffffffffffffffff168152602001836001600581106108e0577f4e487b7100000000000000000000000000000000000000000000000000000000600052603260045260246000fd5b602002015173ffffffffffffffffffffffffffffffffffffffff1681526020018360026005811061093a577f4e487b7100000000000000000000000000000000000000000000000000000000600052603260045260246000fd5b602002015181526020018360036005811061097e577f4e487b7100000000000000000000000000000000000000000000000000000000600052603260045260246000fd5b60200201518152602001836004600581106109c2577f4e487b7100000000000000000000000000000000000000000000000000000000600052603260045260246000fd5b60200201518152506001600084600460058110610a08577f4e487b7100000000000000000000000000000000000000000000000000000000600052603260045260246000fd5b6020020151815260200190815260200160002060008201518160000160006101000a81548160ff02191690831515021790555060208201518160000160016101000a81548173ffffffffffffffffffffffffffffffffffffffff021916908373ffffffffffffffffffffffffffffffffffffffff16021790555060408201518160010160006101000a81548173ffffffffffffffffffffffffffffffffffffffff021916908373ffffffffffffffffffffffffffffffffffffffff160217905550606082015181600201556080820151816003015560a0820151816004015590505060019050919050565b600082602001516000806101000a81548173ffffffffffffffffffffffffffffffffffffffff021916908373ffffffffffffffffffffffffffffffffffffffff160217905550826040015173ffffffffffffffffffffffffffffffffffffffff166108fc83600160038110610b91577f4e487b7100000000000000000000000000000000000000000000000000000000600052603260045260246000fd5b60200201518560600151610ba59190611396565b9081150290604051600060405180830381858888f19350505050158015610bd0573d6000803e3d6000fd5b5081600160038110610c0b577f4e487b7100000000000000000000000000000000000000000000000000000000600052603260045260246000fd5b60200201516001600084600060038110610c4e577f4e487b7100000000000000000000000000000000000000000000000000000000600052603260045260246000fd5b602002015181526020019081526020016000206003016000828254610c7391906113f0565b9250508190555060008054906101000a900473ffffffffffffffffffffffffffffffffffffffff1673ffffffffffffffffffffffffffffffffffffffff1663a9059cbb83600260038110610cf0577f4e487b7100000000000000000000000000000000000000000000000000000000600052603260045260246000fd5b602002015184600160038110610d2f577f4e487b7100000000000000000000000000000000000000000000000000000000600052603260045260246000fd5b60200201516040518363ffffffff1660e01b8152600401610d519291906111a4565b602060405180830381600087803b158015610d6b57600080fd5b505af1158015610d7f573d6000803e3d6000fd5b505050506040513d601f19601f82011682018060405250810190610da39190610fd8565b5060008060009054906101000a900473ffffffffffffffffffffffffffffffffffffffff1673ffffffffffffffffffffffffffffffffffffffff166370a08231306040518263ffffffff1660e01b8152600401610e009190611152565b60206040518083038186803b158015610e1857600080fd5b505afa158015610e2c573d6000803e3d6000fd5b505050506040513d601f19601f82011682018060405250810190610e50919061102a565b90506000811415610f2a576001600084600060038110610e99577f4e487b7100000000000000000000000000000000000000000000000000000000600052603260045260246000fd5b60200201518152602001908152602001600020600080820160006101000a81549060ff02191690556000820160016101000a81549073ffffffffffffffffffffffffffffffffffffffff02191690556001820160006101000a81549073ffffffffffffffffffffffffffffffffffffffff021916905560028201600090556003820160009055600482016000905550505b600191505092915050565b600081359050610f44816115da565b92915050565b600081519050610f59816115f1565b92915050565b600081359050610f6e81611608565b92915050565b600081519050610f8381611608565b92915050565b600080600060608486031215610f9e57600080fd5b6000610fac86828701610f35565b9350506020610fbd86828701610f5f565b9250506040610fce86828701610f5f565b9150509250925092565b600060208284031215610fea57600080fd5b6000610ff884828501610f4a565b91505092915050565b60006020828403121561101357600080fd5b600061102184828501610f5f565b91505092915050565b60006020828403121561103c57600080fd5b600061104a84828501610f74565b91505092915050565b61105c81611424565b82525050565b61106b81611436565b82525050565b600061107e600e83611385565b9150611089826114e4565b602082019050919050565b60006110a1601483611385565b91506110ac8261150d565b602082019050919050565b60006110c4600f83611385565b91506110cf82611536565b602082019050919050565b60006110e7600d83611385565b91506110f28261155f565b602082019050919050565b600061110a601283611385565b915061111582611588565b602082019050919050565b600061112d601d83611385565b9150611138826115b1565b602082019050919050565b61114c81611462565b82525050565b60006020820190506111676000830184611053565b92915050565b60006060820190506111826000830186611053565b61118f6020830185611053565b61119c6040830184611143565b949350505050565b60006040820190506111b96000830185611053565b6111c66020830184611143565b9392505050565b60006060820190506111e26000830186611053565b6111ef6020830185611143565b6111fc6040830184611143565b949350505050565b60006080820190506112196000830187611053565b6112266020830186611143565b6112336040830185611143565b6112406060830184611143565b95945050505050565b600060c08201905061125e6000830189611062565b61126b6020830188611053565b6112786040830187611053565b6112856060830186611143565b6112926080830185611143565b61129f60a0830184611143565b979650505050505050565b600060208201905081810360008301526112c381611071565b9050919050565b600060208201905081810360008301526112e381611094565b9050919050565b60006020820190508181036000830152611303816110b7565b9050919050565b60006020820190508181036000830152611323816110da565b9050919050565b60006020820190508181036000830152611343816110fd565b9050919050565b6000602082019050818103600083015261136381611120565b9050919050565b600060208201905061137f6000830184611143565b92915050565b600082825260208201905092915050565b60006113a182611462565b91506113ac83611462565b9250817fffffffffffffffffffffffffffffffffffffffffffffffffffffffffffffffff04831182151516156113e5576113e46114b5565b5b828202905092915050565b60006113fb82611462565b915061140683611462565b925082821015611419576114186114b5565b5b828203905092915050565b600061142f82611442565b9050919050565b60008115159050919050565b600073ffffffffffffffffffffffffffffffffffffffff82169050919050565b6000819050919050565b600061147782611462565b91507fffffffffffffffffffffffffffffffffffffffffffffffffffffffffffffffff8214156114aa576114a96114b5565b5b600182019050919050565b7f4e487b7100000000000000000000000000000000000000000000000000000000600052601160045260246000fd5b7f4f5443206e6f7420616374697665000000000000000000000000000000000000600082015250565b7f636f756c64206e6f7420637265617465204f5443000000000000000000000000600082015250565b7f696e76616c696420706f696e7465720000000000000000000000000000000000600082015250565b7f5075726368617365206661696c00000000000000000000000000000000000000600082015250565b7f5061796d656e74206e6f7420656e6f7567680000000000000000000000000000600082015250565b7f45786365656473204552433230206f7074696f6e732062616c616e6365000000600082015250565b6115e381611424565b81146115ee57600080fd5b50565b6115fa81611436565b811461160557600080fd5b50565b61161181611462565b811461161c57600080fd5b5056fea264697066735822122012d097c1c73901ee42271de7af40f7ef171b6066889660a9603b72648f8ed22a64736f6c63430008040033",
  "linkReferences": {},
  "deployedLinkReferences": {}
}