{
  "_format": "hh-sol-artifact-1",
  "contractName": "ERC20PutOption",
  "sourceName": "contracts/ERC20PutOption.sol",
  "abi": [
    {
      "inputs": [],
      "stateMutability": "nonpayable",
      "type": "constructor"
    },
    {
      "anonymous": false,
      "inputs": [
        {
          "indexed": true,
          "internalType": "address",
          "name": "owner",
          "type": "address"
        },
        {
          "indexed": true,
          "internalType": "address",
          "name": "spender",
          "type": "address"
        },
        {
          "indexed": false,
          "internalType": "uint256",
          "name": "value",
          "type": "uint256"
        }
      ],
      "name": "Approval",
      "type": "event"
    },
    {
      "anonymous": false,
      "inputs": [
        {
          "indexed": false,
          "internalType": "address",
          "name": "to",
          "type": "address"
        },
        {
          "indexed": false,
          "internalType": "uint256",
          "name": "amount",
          "type": "uint256"
        }
      ],
      "name": "Minted",
      "type": "event"
    },
    {
      "anonymous": false,
      "inputs": [
        {
          "indexed": true,
          "internalType": "address",
          "name": "from",
          "type": "address"
        },
        {
          "indexed": true,
          "internalType": "address",
          "name": "to",
          "type": "address"
        },
        {
          "indexed": false,
          "internalType": "uint256",
          "name": "value",
          "type": "uint256"
        }
      ],
      "name": "Transfer",
      "type": "event"
    },
    {
      "inputs": [
        {
          "internalType": "address",
          "name": "owner",
          "type": "address"
        },
        {
          "internalType": "address",
          "name": "spender",
          "type": "address"
        }
      ],
      "name": "allowance",
      "outputs": [
        {
          "internalType": "uint256",
          "name": "",
          "type": "uint256"
        }
      ],
      "stateMutability": "view",
      "type": "function"
    },
    {
      "inputs": [
        {
          "internalType": "address",
          "name": "spender",
          "type": "address"
        },
        {
          "internalType": "uint256",
          "name": "amount",
          "type": "uint256"
        }
      ],
      "name": "approve",
      "outputs": [
        {
          "internalType": "bool",
          "name": "",
          "type": "bool"
        }
      ],
      "stateMutability": "nonpayable",
      "type": "function"
    },
    {
      "inputs": [
        {
          "internalType": "address",
          "name": "account",
          "type": "address"
        }
      ],
      "name": "balanceOf",
      "outputs": [
        {
          "internalType": "uint256",
          "name": "",
          "type": "uint256"
        }
      ],
      "stateMutability": "view",
      "type": "function"
    },
    {
      "inputs": [],
      "name": "decimals",
      "outputs": [
        {
          "internalType": "uint8",
          "name": "",
          "type": "uint8"
        }
      ],
      "stateMutability": "pure",
      "type": "function"
    },
    {
      "inputs": [
        {
          "internalType": "address",
          "name": "spender",
          "type": "address"
        },
        {
          "internalType": "uint256",
          "name": "subtractedValue",
          "type": "uint256"
        }
      ],
      "name": "decreaseAllowance",
      "outputs": [
        {
          "internalType": "bool",
          "name": "",
          "type": "bool"
        }
      ],
      "stateMutability": "nonpayable",
      "type": "function"
    },
    {
      "inputs": [],
      "name": "faucet",
      "outputs": [],
      "stateMutability": "nonpayable",
      "type": "function"
    },
    {
      "inputs": [],
      "name": "getDetails",
      "outputs": [
        {
          "internalType": "uint256",
          "name": "",
          "type": "uint256"
        },
        {
          "internalType": "uint256",
          "name": "",
          "type": "uint256"
        },
        {
          "internalType": "uint256",
          "name": "",
          "type": "uint256"
        },
        {
          "internalType": "uint256",
          "name": "",
          "type": "uint256"
        }
      ],
      "stateMutability": "view",
      "type": "function"
    },
    {
      "inputs": [
        {
          "internalType": "address",
          "name": "spender",
          "type": "address"
        },
        {
          "internalType": "uint256",
          "name": "addedValue",
          "type": "uint256"
        }
      ],
      "name": "increaseAllowance",
      "outputs": [
        {
          "internalType": "bool",
          "name": "",
          "type": "bool"
        }
      ],
      "stateMutability": "nonpayable",
      "type": "function"
    },
    {
      "inputs": [],
      "name": "name",
      "outputs": [
        {
          "internalType": "string",
          "name": "",
          "type": "string"
        }
      ],
      "stateMutability": "view",
      "type": "function"
    },
    {
      "inputs": [],
      "name": "symbol",
      "outputs": [
        {
          "internalType": "string",
          "name": "",
          "type": "string"
        }
      ],
      "stateMutability": "view",
      "type": "function"
    },
    {
      "inputs": [],
      "name": "totalSupply",
      "outputs": [
        {
          "internalType": "uint256",
          "name": "",
          "type": "uint256"
        }
      ],
      "stateMutability": "view",
      "type": "function"
    },
    {
      "inputs": [
        {
          "internalType": "address",
          "name": "recipient",
          "type": "address"
        },
        {
          "internalType": "uint256",
          "name": "amount",
          "type": "uint256"
        }
      ],
      "name": "transfer",
      "outputs": [
        {
          "internalType": "bool",
          "name": "",
          "type": "bool"
        }
      ],
      "stateMutability": "nonpayable",
      "type": "function"
    },
    {
      "inputs": [
        {
          "internalType": "address",
          "name": "sender",
          "type": "address"
        },
        {
          "internalType": "address",
          "name": "recipient",
          "type": "address"
        },
        {
          "internalType": "uint256",
          "name": "amount",
          "type": "uint256"
        }
      ],
      "name": "transferFrom",
      "outputs": [
        {
          "internalType": "bool",
          "name": "",
          "type": "bool"
        }
      ],
      "stateMutability": "nonpayable",
      "type": "function"
    }
  ],
  "bytecode": "0x6080604052600160055560016006556109c460075562278d00426200002591906200018c565b6008553480156200003557600080fd5b506040518060400160405280601681526020017f4554482d555344542050323530302053455032303231000000000000000000008152506040518060400160405280600381526020017f4f505800000000000000000000000000000000000000000000000000000000008152508160039080519060200190620000ba929190620000dc565b508060049080519060200190620000d3929190620000dc565b50505062000287565b828054620000ea90620001f3565b90600052602060002090601f0160209004810192826200010e57600085556200015a565b82601f106200012957805160ff19168380011785556200015a565b828001600101855582156200015a579182015b82811115620001595782518255916020019190600101906200013c565b5b5090506200016991906200016d565b5090565b5b80821115620001885760008160009055506001016200016e565b5090565b60006200019982620001e9565b9150620001a683620001e9565b9250827fffffffffffffffffffffffffffffffffffffffffffffffffffffffffffffffff03821115620001de57620001dd62000229565b5b828201905092915050565b6000819050919050565b600060028204905060018216806200020c57607f821691505b6020821081141562000223576200022262000258565b5b50919050565b7f4e487b7100000000000000000000000000000000000000000000000000000000600052601160045260246000fd5b7f4e487b7100000000000000000000000000000000000000000000000000000000600052602260045260246000fd5b6116b380620002976000396000f3fe608060405234801561001057600080fd5b50600436106100cf5760003560e01c806370a082311161008c578063a9059cbb11610066578063a9059cbb1461023c578063dd62ed3e1461026c578063de5f72fd1461029c578063fbbf93a0146102a6576100cf565b806370a08231146101be57806395d89b41146101ee578063a457c2d71461020c576100cf565b806306fdde03146100d4578063095ea7b3146100f257806318160ddd1461012257806323b872dd14610140578063313ce56714610170578063395093511461018e575b600080fd5b6100dc6102c7565b6040516100e991906110b3565b60405180910390f35b61010c60048036038101906101079190610e97565b610359565b6040516101199190611098565b60405180910390f35b61012a610377565b60405161013791906111d5565b60405180910390f35b61015a60048036038101906101559190610e48565b610381565b6040516101679190611098565b60405180910390f35b610178610479565b6040516101859190611235565b60405180910390f35b6101a860048036038101906101a39190610e97565b61047e565b6040516101b59190611098565b60405180910390f35b6101d860048036038101906101d39190610de3565b61052a565b6040516101e591906111d5565b60405180910390f35b6101f6610572565b60405161020391906110b3565b60405180910390f35b61022660048036038101906102219190610e97565b610604565b6040516102339190611098565b60405180910390f35b61025660048036038101906102519190610e97565b6106ef565b6040516102639190611098565b60405180910390f35b61028660048036038101906102819190610e0c565b61070d565b60405161029391906111d5565b60405180910390f35b6102a4610794565b005b6102ae6107db565b6040516102be94939291906111f0565b60405180910390f35b6060600380546102d69061135c565b80601f01602080910402602001604051908101604052809291908181526020018280546103029061135c565b801561034f5780601f106103245761010080835404028352916020019161034f565b820191906000526020600020905b81548152906001019060200180831161033257829003601f168201915b5050505050905090565b600061036d6103666107fb565b8484610803565b6001905092915050565b6000600254905090565b600061038e8484846109ce565b6000600160008673ffffffffffffffffffffffffffffffffffffffff1673ffffffffffffffffffffffffffffffffffffffff16815260200190815260200160002060006103d96107fb565b73ffffffffffffffffffffffffffffffffffffffff1673ffffffffffffffffffffffffffffffffffffffff16815260200190815260200160002054905082811015610459576040517f08c379a000000000000000000000000000000000000000000000000000000000815260040161045090611135565b60405180910390fd5b61046d856104656107fb565b858403610803565b60019150509392505050565b600090565b600061052061048b6107fb565b8484600160006104996107fb565b73ffffffffffffffffffffffffffffffffffffffff1673ffffffffffffffffffffffffffffffffffffffff16815260200190815260200160002060008873ffffffffffffffffffffffffffffffffffffffff1673ffffffffffffffffffffffffffffffffffffffff1681526020019081526020016000205461051b919061126c565b610803565b6001905092915050565b60008060008373ffffffffffffffffffffffffffffffffffffffff1673ffffffffffffffffffffffffffffffffffffffff168152602001908152602001600020549050919050565b6060600480546105819061135c565b80601f01602080910402602001604051908101604052809291908181526020018280546105ad9061135c565b80156105fa5780601f106105cf576101008083540402835291602001916105fa565b820191906000526020600020905b8154815290600101906020018083116105dd57829003601f168201915b5050505050905090565b600080600160006106136107fb565b73ffffffffffffffffffffffffffffffffffffffff1673ffffffffffffffffffffffffffffffffffffffff16815260200190815260200160002060008573ffffffffffffffffffffffffffffffffffffffff1673ffffffffffffffffffffffffffffffffffffffff168152602001908152602001600020549050828110156106d0576040517f08c379a00000000000000000000000000000000000000000000000000000000081526004016106c790611195565b60405180910390fd5b6106e46106db6107fb565b85858403610803565b600191505092915050565b60006107036106fc6107fb565b84846109ce565b6001905092915050565b6000600160008473ffffffffffffffffffffffffffffffffffffffff1673ffffffffffffffffffffffffffffffffffffffff16815260200190815260200160002060008373ffffffffffffffffffffffffffffffffffffffff1673ffffffffffffffffffffffffffffffffffffffff16815260200190815260200160002054905092915050565b61079f33600a610c4f565b7f30385c845b448a36257a6a1716e6ad2e1bc2cbe333cde1e69fe849ad6511adfe33600a6040516107d192919061106f565b60405180910390a1565b600080600080600554600654600754600854935093509350935090919293565b600033905090565b600073ffffffffffffffffffffffffffffffffffffffff168373ffffffffffffffffffffffffffffffffffffffff161415610873576040517f08c379a000000000000000000000000000000000000000000000000000000000815260040161086a90611175565b60405180910390fd5b600073ffffffffffffffffffffffffffffffffffffffff168273ffffffffffffffffffffffffffffffffffffffff1614156108e3576040517f08c379a00000000000000000000000000000000000000000000000000000000081526004016108da906110f5565b60405180910390fd5b80600160008573ffffffffffffffffffffffffffffffffffffffff1673ffffffffffffffffffffffffffffffffffffffff16815260200190815260200160002060008473ffffffffffffffffffffffffffffffffffffffff1673ffffffffffffffffffffffffffffffffffffffff168152602001908152602001600020819055508173ffffffffffffffffffffffffffffffffffffffff168373ffffffffffffffffffffffffffffffffffffffff167f8c5be1e5ebec7d5bd14f71427d1e84f3dd0314c0f7b2291e5b200ac8c7c3b925836040516109c191906111d5565b60405180910390a3505050565b600073ffffffffffffffffffffffffffffffffffffffff168373ffffffffffffffffffffffffffffffffffffffff161415610a3e576040517f08c379a0000000000000000000000000000000000000000000000000000000008152600401610a3590611155565b60405180910390fd5b600073ffffffffffffffffffffffffffffffffffffffff168273ffffffffffffffffffffffffffffffffffffffff161415610aae576040517f08c379a0000000000000000000000000000000000000000000000000000000008152600401610aa5906110d5565b60405180910390fd5b610ab9838383610daf565b60008060008573ffffffffffffffffffffffffffffffffffffffff1673ffffffffffffffffffffffffffffffffffffffff16815260200190815260200160002054905081811015610b3f576040517f08c379a0000000000000000000000000000000000000000000000000000000008152600401610b3690611115565b60405180910390fd5b8181036000808673ffffffffffffffffffffffffffffffffffffffff1673ffffffffffffffffffffffffffffffffffffffff16815260200190815260200160002081905550816000808573ffffffffffffffffffffffffffffffffffffffff1673ffffffffffffffffffffffffffffffffffffffff1681526020019081526020016000206000828254610bd2919061126c565b925050819055508273ffffffffffffffffffffffffffffffffffffffff168473ffffffffffffffffffffffffffffffffffffffff167fddf252ad1be2c89b69c2b068fc378daa952ba7f163c4a11628f55a4df523b3ef84604051610c3691906111d5565b60405180910390a3610c49848484610db4565b50505050565b600073ffffffffffffffffffffffffffffffffffffffff168273ffffffffffffffffffffffffffffffffffffffff161415610cbf576040517f08c379a0000000000000000000000000000000000000000000000000000000008152600401610cb6906111b5565b60405180910390fd5b610ccb60008383610daf565b8060026000828254610cdd919061126c565b92505081905550806000808473ffffffffffffffffffffffffffffffffffffffff1673ffffffffffffffffffffffffffffffffffffffff1681526020019081526020016000206000828254610d32919061126c565b925050819055508173ffffffffffffffffffffffffffffffffffffffff16600073ffffffffffffffffffffffffffffffffffffffff167fddf252ad1be2c89b69c2b068fc378daa952ba7f163c4a11628f55a4df523b3ef83604051610d9791906111d5565b60405180910390a3610dab60008383610db4565b5050565b505050565b505050565b600081359050610dc88161164f565b92915050565b600081359050610ddd81611666565b92915050565b600060208284031215610df557600080fd5b6000610e0384828501610db9565b91505092915050565b60008060408385031215610e1f57600080fd5b6000610e2d85828601610db9565b9250506020610e3e85828601610db9565b9150509250929050565b600080600060608486031215610e5d57600080fd5b6000610e6b86828701610db9565b9350506020610e7c86828701610db9565b9250506040610e8d86828701610dce565b9150509250925092565b60008060408385031215610eaa57600080fd5b6000610eb885828601610db9565b9250506020610ec985828601610dce565b9150509250929050565b610edc816112c2565b82525050565b610eeb816112d4565b82525050565b610efa81611317565b82525050565b6000610f0b82611250565b610f15818561125b565b9350610f25818560208601611329565b610f2e816113ec565b840191505092915050565b6000610f4660238361125b565b9150610f51826113fd565b604082019050919050565b6000610f6960228361125b565b9150610f748261144c565b604082019050919050565b6000610f8c60268361125b565b9150610f978261149b565b604082019050919050565b6000610faf60288361125b565b9150610fba826114ea565b604082019050919050565b6000610fd260258361125b565b9150610fdd82611539565b604082019050919050565b6000610ff560248361125b565b915061100082611588565b604082019050919050565b600061101860258361125b565b9150611023826115d7565b604082019050919050565b600061103b601f8361125b565b915061104682611626565b602082019050919050565b61105a81611300565b82525050565b6110698161130a565b82525050565b60006040820190506110846000830185610ed3565b6110916020830184610ef1565b9392505050565b60006020820190506110ad6000830184610ee2565b92915050565b600060208201905081810360008301526110cd8184610f00565b905092915050565b600060208201905081810360008301526110ee81610f39565b9050919050565b6000602082019050818103600083015261110e81610f5c565b9050919050565b6000602082019050818103600083015261112e81610f7f565b9050919050565b6000602082019050818103600083015261114e81610fa2565b9050919050565b6000602082019050818103600083015261116e81610fc5565b9050919050565b6000602082019050818103600083015261118e81610fe8565b9050919050565b600060208201905081810360008301526111ae8161100b565b9050919050565b600060208201905081810360008301526111ce8161102e565b9050919050565b60006020820190506111ea6000830184611051565b92915050565b60006080820190506112056000830187611051565b6112126020830186611051565b61121f6040830185611051565b61122c6060830184611051565b95945050505050565b600060208201905061124a6000830184611060565b92915050565b600081519050919050565b600082825260208201905092915050565b600061127782611300565b915061128283611300565b9250827fffffffffffffffffffffffffffffffffffffffffffffffffffffffffffffffff038211156112b7576112b661138e565b5b828201905092915050565b60006112cd826112e0565b9050919050565b60008115159050919050565b600073ffffffffffffffffffffffffffffffffffffffff82169050919050565b6000819050919050565b600060ff82169050919050565b600061132282611300565b9050919050565b60005b8381101561134757808201518184015260208101905061132c565b83811115611356576000848401525b50505050565b6000600282049050600182168061137457607f821691505b60208210811415611388576113876113bd565b5b50919050565b7f4e487b7100000000000000000000000000000000000000000000000000000000600052601160045260246000fd5b7f4e487b7100000000000000000000000000000000000000000000000000000000600052602260045260246000fd5b6000601f19601f8301169050919050565b7f45524332303a207472616e7366657220746f20746865207a65726f206164647260008201527f6573730000000000000000000000000000000000000000000000000000000000602082015250565b7f45524332303a20617070726f766520746f20746865207a65726f20616464726560008201527f7373000000000000000000000000000000000000000000000000000000000000602082015250565b7f45524332303a207472616e7366657220616d6f756e742065786365656473206260008201527f616c616e63650000000000000000000000000000000000000000000000000000602082015250565b7f45524332303a207472616e7366657220616d6f756e742065786365656473206160008201527f6c6c6f77616e6365000000000000000000000000000000000000000000000000602082015250565b7f45524332303a207472616e736665722066726f6d20746865207a65726f20616460008201527f6472657373000000000000000000000000000000000000000000000000000000602082015250565b7f45524332303a20617070726f76652066726f6d20746865207a65726f2061646460008201527f7265737300000000000000000000000000000000000000000000000000000000602082015250565b7f45524332303a2064656372656173656420616c6c6f77616e63652062656c6f7760008201527f207a65726f000000000000000000000000000000000000000000000000000000602082015250565b7f45524332303a206d696e7420746f20746865207a65726f206164647265737300600082015250565b611658816112c2565b811461166357600080fd5b50565b61166f81611300565b811461167a57600080fd5b5056fea26469706673582212203fc241fce5793fff4e4b219c333d3380127ec8daf0d0871129f285c41feaa5ad64736f6c63430008040033",
  "linkReferences": {},
  "deployedLinkReferences": {}
}