{
  "_format": "hh-sol-artifact-1",
  "contractName": "Test",
  "sourceName": "contracts/Test.sol",
  "abi": [
    {
      "inputs": [],
      "stateMutability": "nonpayable",
      "type": "constructor"
    },
    {
      "inputs": [
        {
          "internalType": "uint256",
          "name": "_number",
          "type": "uint256"
        }
      ],
      "name": "readStore",
      "outputs": [
        {
          "internalType": "string",
          "name": "",
          "type": "string"
        }
      ],
      "stateMutability": "view",
      "type": "function"
    },
    {
      "inputs": [
        {
          "internalType": "uint256",
          "name": "",
          "type": "uint256"
        }
      ],
      "name": "store",
      "outputs": [
        {
          "internalType": "string",
          "name": "",
          "type": "string"
        }
      ],
      "stateMutability": "view",
      "type": "function"
    }
  ],
  "bytecode": "0x608060405234801561001057600080fd5b506040518060400160405280600d81526020017f6669727374206d6573736167650000000000000000000000000000000000000081525060008060018152602001908152602001600020908051906020019061006d92919061012d565b506040518060400160405280600e81526020017f7365636f6e64206d6573736167650000000000000000000000000000000000008152506000806002815260200190815260200160002090805190602001906100ca92919061012d565b506040518060400160405280600d81526020017f7468697264206d6573736167650000000000000000000000000000000000000081525060008060038152602001908152602001600020908051906020019061012792919061012d565b50610231565b828054610139906101d0565b90600052602060002090601f01602090048101928261015b57600085556101a2565b82601f1061017457805160ff19168380011785556101a2565b828001600101855582156101a2579182015b828111156101a1578251825591602001919060010190610186565b5b5090506101af91906101b3565b5090565b5b808211156101cc5760008160009055506001016101b4565b5090565b600060028204905060018216806101e857607f821691505b602082108114156101fc576101fb610202565b5b50919050565b7f4e487b7100000000000000000000000000000000000000000000000000000000600052602260045260246000fd5b610390806102406000396000f3fe608060405234801561001057600080fd5b50600436106100365760003560e01c80636057361d1461003b578063d35030ab1461006b575b600080fd5b610055600480360381019061005091906101f4565b61009b565b6040516100629190610256565b60405180910390f35b610085600480360381019061008091906101f4565b61013b565b6040516100929190610256565b60405180910390f35b600060205280600052604060002060009150905080546100ba906102d1565b80601f01602080910402602001604051908101604052809291908181526020018280546100e6906102d1565b80156101335780601f1061010857610100808354040283529160200191610133565b820191906000526020600020905b81548152906001019060200180831161011657829003601f168201915b505050505081565b6060600080838152602001908152602001600020805461015a906102d1565b80601f0160208091040260200160405190810160405280929190818152602001828054610186906102d1565b80156101d35780601f106101a8576101008083540402835291602001916101d3565b820191906000526020600020905b8154815290600101906020018083116101b657829003601f168201915b50505050509050919050565b6000813590506101ee81610343565b92915050565b60006020828403121561020657600080fd5b6000610214848285016101df565b91505092915050565b600061022882610278565b6102328185610283565b935061024281856020860161029e565b61024b81610332565b840191505092915050565b60006020820190508181036000830152610270818461021d565b905092915050565b600081519050919050565b600082825260208201905092915050565b6000819050919050565b60005b838110156102bc5780820151818401526020810190506102a1565b838111156102cb576000848401525b50505050565b600060028204905060018216806102e957607f821691505b602082108114156102fd576102fc610303565b5b50919050565b7f4e487b7100000000000000000000000000000000000000000000000000000000600052602260045260246000fd5b6000601f19601f8301169050919050565b61034c81610294565b811461035757600080fd5b5056fea2646970667358221220c3855dd4cb1b11827f4859579d3dd22f8ccb1603c367d84d37f9896e05618aa964736f6c63430008040033",
  "linkReferences": {},
  "deployedLinkReferences": {}
}